:060000000A128A11122809
:10000800FE00030EF1000408F2000A08F300831250
:1000180003137F08F4000A128A1119280A128A1198
:10002800152883010A128A1174281412941B1E2899
:10003800141F25281308F0007008F50094131413F2
:10004800141683160313941E14193A2883120313E3
:100058001308F0007008F50083160313141C3028E9
:10006800831203131308860014164F28941E141DB8
:100078004F28831203131308F0007008F500831645
:10008800031314108312031308089300141683161D
:10009800031314184B2883128C117408FF0073087B
:1000A8008A0072088400710E8300FE0E7E0E09001D
:1000B800F6008316031387150716363083120313C9
:1000C8009400013083160313910080309400760861
:1000D80093008C15831203138C110B178B170800D0
:1000E800831603138601831203138601FF308316D8
:1000F8000313880010300A128A115C200A128A1130
:02010800842849
:02400E0071FF40
:00000001FF
