:060000000A128A11122809
:10000800FE00030EF0000408F1000A08F200831253
:1000180003137F08F3000A128A113A280A128A1178
:100028001528F401F501F60183010A128A111C282A
:100038008316031385018312031385010630831683
:1000480003139F0020308312031390000A30970097
:10005800831603130C15831203130C110430960036
:10006800E23095000B178B17101439288B130C1DD1
:1000780040280C11013085068B177308FF007208A1
:100088008A0071088400700E8300FE0E7E0E09003F
:02400E0071FF40
:00000001FF
