:060000000A128A11FC2F18
:100F4C00831603138501FF3088008312081EAB2F14
:100F5C0008080F39F000F1017008F2007108F30075
:100F6C00CE2F0130CD2F0230CD2F0330CD2F0430BA
:100F7C00CD2F0530CD2F0630CD2F0730CD2F08309B
:100F8C00CD2F0930CD2FCC2F8501CE2F0F308500E2
:100F9C00081EAB2F7308003A0319D52FCE2F7208F9
:100FAC00003A0319B72F013A0319B92F033A031961
:100FBC00BB2F063A0319BD2F013A0319BF2F033A71
:100FCC000319C12F0E3A0319C32F013A0319C52F68
:100FDC00033A0319C72F063A0319C92F013A03190B
:100FEC00CA2F033A0319CC2FCE2FCE2F83010A120E
:040FFC008A11A62F81
:02400E0071FF40
:00000001FF
