:060000000A128A11122809
:10000800FE00030EF2000408F3000A08F40083124D
:1000180003137F08F5000A128A119B280A128A1115
:100028001528F801AE01AF010A128A1164220A12DA
:100038008A11AB000A128A1165220A128A11AC00D1
:100048000A128A116622AD0083010A128A112C282D
:10005800C430831603138100013086008701FF3006
:10006800880001170B168B100B118B168B170A12B1
:100078008A118D210A128A11831203132E08AA00ED
:100088002A08A7002F080A128A1119220A128A11AF
:100098000A128A1159220A128A11781C51287818D2
:1000A80065288D280C30831203135D280C305D28D9
:1000B8007A30AB000030AC008D2878118D28781587
:1000C8008D28831203132D08233A03196328093A4C
:1000D800031961281A3A03195C28013A03195628AA
:1000E800033A03195A28013A03195A28073A0319F7
:1000F8005A28013A03195A28033A03195A28013A87
:1001080003195A280F3A03195A28013A03195A2889
:100118008D28781995280A128A1135210A128A1110
:1001280051280A128A1161210A128A1151288B1347
:100138008B1CF0288B10781408080F39F000F10197
:100148007008F6007108F700C4283130C028323032
:10015800C0283330C0283430C0283530C028363065
:10016800C0283730C0283830C0283930C0282A3055
:10017800C0283030C0282330F0007008AD00F428C3
:100188007708003A0319C928F4287608003A0319B1
:10019800A928013A0319AB28033A0319AD28063AEE
:1001A8000319AF28013A0319B128033A0319B328F0
:1001B8000E3A0319B528013A0319B728033A031967
:1001C800B928063A0319BB28013A0319BD28033A8E
:1001D8000319BF28F428F4280B1DF4280B11F81470
:1001E8008B177508FF0074088A0073088400720E64
:1001F8008300FE0E7E0E0900831203132108A3015B
:10020800A3072008A201A207230822040319080053
:10021800A401A5012508803AFF0081307F02031D53
:1002280017290030240203182C29013083120313E4
:10023800A4070318A50A0030A5072508803AFF007F
:1002480081307F02031D2A2900302402031C19294A
:10025800FF3083120313A2070318A30AFF30A30772
:100268000829831203132E08093A031D4729AE01F2
:100278002F08093A031D4229AF014B290130A90073
:100288002908AF074B290130A9002908AE072C0817
:10029800A101A1072B08A001A0070A128A11FB21BE
:1002A8000A128A11831203132E08A9002908A7002D
:1002B8002F080A128A111922080083120313AE08A4
:1002C800031D75290930A9002908AE00AF08031DD0
:1002D80072290930A9002908AF0077290130AF0237
:1002E80077290130AE022C08A101A1072B08A00133
:1002F800A0070A128A11FB210A128A11831203131A
:100308002E08A9002908A7002F080A128A11192205
:100318000800013083120313A0000030A1000A1264
:100328008A1100210A128A1138300A128A113322DE
:100338000A128A1108300A128A1133220A128A1103
:1003480001300A128A1133220A128A1106300A125F
:100358008A1133220A128A110C300A128A113322A6
:10036800080083120313A900A701A8012708290779
:1003780084000A128A11DB210A128A110038031933
:1003880008002708290784000A128A11DB210A12AB
:100398008A110A128A1146220A128A11013083121E
:1003A8000313A7070318A80A0030A807BA290130C1
:1003B8008A000408840A8207003443346F34753491
:1003C8006E347434203444346F3477346E340034EB
:1003D80043346F3475346E34743420345534703487
:1003E800003443346F3475346E34743400348312FB
:1003F8000313A301A401831203132408803AA20063
:100408002108803A2202031D0B2A20082302031820
:100418000800F81CFF29013083120313A3070318EF
:10042800A40A0030A407F810FF2983120313A800B8
:100438009D300A128A1133220A128A118312031379
:100448002808303E0A128A1146220A128A1183129B
:1004580003132708303E0A128A1146220800831225
:100468000313A6002608870086100611861501309A
:10047800A0000030A1000A128A1100218312031380
:100488008611080083120313A60026088700861425
:10049800061186150130A0000030A1000A128A1149
:1004A80000218312031386110800C7300A128A112B
:1004B80033220A128A1115300A128A11B52108004E
:0604C8007A3400342034F8
:02400E0071FF40
:00000001FF
