:060000000A128A11122809
:10000800FE00030EF7000408F8000A08F90083123E
:1000180003137F08FA000A128A11D2290A128A11D8
:100028001528F001F101F201F301F401F501F601DF
:10003800A001A101A201A301A4010A128A11E121D0
:100048000A128A11FB000A128A11E2210A128A1185
:10005800FC000A128A11E321FD0083010A128A11A9
:100068003528033083160313860087013E3092003B
:1000780006308312031395001C30970007110630D1
:100088009200061C90280130F5070318F60A003084
:10009800F60776087504031D5B283E3083160313A4
:1000A80092001230FB008330FC003A30782801308F
:1000B80075067604031D6A282930831603139200F7
:1000C8006030FB00E530FC003B30782802307506D4
:1000D8007604031D7A280530831603139200B7307F
:1000E800FB00D130FC003830FD008D28003076024E
:1000F800033003197502031C8D28F501F60112302F
:10010800FB008330FC003A30FD003E3083160313B9
:100118009200831206188D28861CD5280130F30713
:100128000318F40A0030F407740873040319CD287F
:10013800013073067404031DA7280030F0008030D6
:10014800F1003E30D228023073067404031DB02833
:100158000030F0000030C128033073067404031D1A
:10016800B9280030F0004030C12804307306740408
:10017800031DC4283330F0007330F1003F30D2281B
:1001880000307402053003197302031CD328F301ED
:10019800F401CD30F000CC30F1003D30F20086188B
:1001A800D3283A307D06031DDF2883307C06031DE3
:1001B800DF2812307B06031D25293D307206031DFA
:1001C800EB28CC307106031DEB28CD307006031DDB
:1001D800EF280630AE293E307206031DF92880301C
:1001E8007106031DF92800307006031DFD280F3025
:1001F800BE293F307206031D072900307106031D12
:10020800072900307006031967293F307206031D5D
:10021800132940307106031D132900307006031D91
:1002280017292F30CE293F307206031D212973303C
:100238007106031D212933307006031D45283B3004
:100248009E293B307D06031D2F29E5307C06031DC2
:100258002F2960307B06031D77293D307206031D68
:100268003B29CC307106031D3B29CD307006031D98
:100278003F290430AE293E307206031D49298030DB
:100288007106031D492900307006031D4D290A30E7
:100298009E293F307206031D572900307106031D41
:1002A800572900307006031D5B291430BE293F30E2
:1002B8007206031D652940307106031D652900304B
:1002C8007006031D69291F30AE293F307206031DD1
:1002D800732973307106031D732933307006031DAB
:1002E800452827309E2938307D06031D8129D130C5
:1002F8007C06031D8129B7307B06031D45283D3048
:100308007206031D8D29CC307106031D8D29CD3051
:100318007006031D91299501BF293E307206031D01
:100328009B2980307106031D9B2900307006031D30
:10033800A129013095002C30D0293F307206031DC9
:10034800AB2900307106031DAB2900307006031D70
:10035800B129033095001C30D0293F307206031DA7
:10036800BB2940307106031DBB2900307006031DF0
:10037800C129043095003C30D0293F307206031D56
:10038800CB2973307106031DCB2933307006031D4A
:100398004528063095000C30970045288B138C189B
:1003A8008C108B177A08FF0079088A007808840077
:1003B800770E8300FE0E7E0E0900123483343A3421
:02400E0071FF40
:00000001FF
