:060000000A128A11122809
:10000800FE00030EF2000408F3000A08F40083124D
:1000180003137F08F5000A128A119D280A128A1113
:100028001528F8010A128A1137220A128A11AB0020
:100038000A128A1138220A128A11AC000A128A118D
:100048003922AD0083010A128A112A28C430831686
:1000580003138100013086008701FF3088000117F3
:100068000B168B100B118B168B170A128A11742121
:100078000A128A11831203132B08AA002A08A70060
:100088002C080A128A11E0210A128A110A128A110E
:100098002C220A128A11781C4F2878188F284F288A
:1000A800781EF81D5E280A128A1145210A128A1143
:1000B800F8114F28781AF81D4F280A128A111421AE
:1000C8000A128A114F28781E6F280A128A111421E1
:1000D8000A128A114F28781A4F282B08AA002A08D2
:1000E800A7002C080A128A11E0210A128A114F2847
:1000F800781EF81986280A128A1114210A128A1100
:10010800F8154F28781AF8194F280A128A1114215D
:100118000A128A114F28831203132D08233A031950
:100128007C28093A031954281A3A031967284F28D2
:100138004F288B138B1CCF288B10781408080F3985
:10014800F000F1017008F6007108F700BE282A30A7
:10015800F0007008AD00F815D3283030F0007008B2
:10016800AD001030F806D3282330F0007008AD0039
:10017800F811D3287708003A0319C328D32876083A
:100188000C3A0319AB28013A0319B128033A0319A9
:10019800B828D328D3280B1DD3280B11F8148B1794
:1001A8007508FF0074088A0073088400720E8300C3
:1001B800FE0E7E0E0900831203132108A301A30774
:1001C8002008A201A2072308220403190800A40199
:1001D800A5012508803AFF0081307F02031DF6281B
:1001E8000030240203180B29013083120313A407DB
:1001F8000318A50A0030A5072508803AFF008130BA
:100208007F02031D092900302402031CF828FF304F
:1002180083120313A2070318A30AFF30A307E728D2
:1002280083120313AC08031D2529AB08031D2529D8
:100238000230A9002908AC000430A9002908AB0045
:100248003129AB08031D2F290930A9002908AB0063
:100258000130AC0231290130AB021F30A000003060
:10026800A1000A128A11C2210A128A1183120313E9
:100278002B08A9002908A7002C080A128A11E021D6
:100288000800831203132C08023A031D52292B0875
:10029800043A031D5229AC01AB0160292B08093A25
:1002A800031D5C29AB010130A9002908AC076029AE
:1002B8000130A9002908AB071F30A0000030A100B9
:1002C8000A128A11C2210A128A11831203132B08F7
:1002D800A9002908A7002C080A128A11E0210800A1
:1002E800013083120313A0000030A1000A128A1102
:1002F800DF200A128A1138300A128A11FA210A12EA
:100308008A1108300A128A11FA210A128A11013058
:100318000A128A11FA210A128A1106300A128A115F
:10032800FA210A128A110C300A128A11FA210800DD
:1003380083120313A900A701A8012708290784002D
:100348000A128A1120220A128A1100380319080099
:100358002708290784000A128A1120220A128A1102
:100368000A128A110D220A128A110130831203130C
:10037800A7070318A80A0030A807A12983120313A6
:10038800A301A401831203132408803AA2002108C0
:10039800803A2202031DD2292008230203180800EC
:1003A800F81CC629013083120313A3070318A40AF3
:1003B8000030A407F810C62983120313A8009D3043
:1003C8000A128A11FA210A128A11831203132808C1
:1003D800303E0A128A110D220A128A11831203135F
:1003E8002708303E0A128A110D22080083120313CF
:1003F800A600260887008612061386170130A0007B
:100408000030A1000A128A11DF2083120313861319
:10041800080083120313A600260887008616061311
:1004280086170130A0000030A1000A128A11DF20CF
:10043800831203138613080002308A000408840A12
:100448008207003443346F3475346E3474340034A6
:10045800C7300A128A11FA210A128A1101300A12C7
:0C0468008A119C21080004340234203466
:02400E0071FF40
:00000001FF
