:060000000A128A11FC2F18
:100D6A00F600760883120313860007148710071506
:100D7A000130F0000030F1000A128A1101278312B3
:100D8A00031307110800F60076088312031386007E
:100D9A000710871007150130F0000030F1000A1221
:100DAA008A11012783120313071108000130F0008A
:100DBA000030F1000A128A1101270A128A1138300A
:100DCA000A128A11C8260A128A1108300A128A11CE
:100DDA00C8260A128A1101300A128A11C8260A1272
:100DEA008A1106300A128A11C8260A128A110E308E
:100DFA000A128A11C82608007108F301F30770085D
:100E0A00F201F2077308720403190800F401F501EC
:100E1A007508803AFF0081307F02031D162F0030CB
:100E2A0074020318292F0130F4070318F50A003059
:100E3A00F5077508803AFF0081307F02031D272FCE
:100E4A0000307402031C182FFF30F2070318F30A4C
:100E5A00FF30F307072F83160313860187011F301C
:100E6A0088008030F9000030FA000A128A11DB2665
:100E7A000A128A1179080A128A11C8260A128A11D4
:100E8A0083120313081E3F2F08080F39F70077084B
:100E9A00F800081EA52F4E2F31300A128A11B526E6
:100EAA000A128A11CB2F32300A128A11B5260A1277
:100EBA008A11CB2F33300A128A11B5260A128A11E7
:100ECA00CB2F34300A128A11B5260A128A11CB2F77
:100EDA0035300A128A11B5260A128A11CB2F3630FA
:100EEA000A128A11B5260A128A11CB2F37300A1232
:100EFA008A11B5260A128A11CB2F38300A128A11A2
:100F0A00B5260A128A11CB2F39300A128A11B52650
:100F1A000A128A11CB2F2A300A128A11B5260A120E
:100F2A008A11CB2F30300A128A11B5260A128A1179
:100F3A00CB2F23300A128A11B5260A128A11CB2F17
:100F4A007808003A0319512F013A0319582F033A26
:100F5A0003195F2F063A0319662F013A03196D2FF9
:100F6A00033A0319742F0E3A03197B2F013A031916
:100F7A00822F033A0319892F063A0319902F013A4F
:100F8A000319972F033A03199E2FCB2F9330790613
:100F9A007A04031DD42FBF30F9000030FA00D33091
:100FAA0079067A04031DDD2F9330F9000030FA0028
:100FBA00A73079067A04031DE62FD330F9000030F2
:100FCA00FA00E83079067A04031DF52F01300A1277
:100FDA008A11C8260A128A117F30F9000030FA00F5
:100FEA000130F9070318FA0A0030FA073F2F830184
:060FFA000A128A11302FDB
:02400E0071FF40
:00000001FF
