:060000000A128A11122809
:10000800FE00030E83120313CF000408D0000A0871
:10001800D1007F08D2000A128A1128290A128A11EF
:100028001528DA01DB01DC01DD01DE01DF018301D6
:100038000A128A11582D831203134008C60041087A
:10004800C7004208C8000310470D480DC9004908F9
:10005800CC004308C6004408C7004508C800031080
:10006800470D480DC9004908CB004C08031948281A
:100078004B084C0203184F284C03FF3A4B07C600A5
:1000880019304602031C4F284308C0004408C10029
:100098004508C20008004B08031908004C084B0229
:1000A80003185E284B03FF3A4C07C6001930460276
:1000B800031808000630C6004608CA00C21BCA1743
:1000C800C51B4A17C117FF30C005FF30C1050030F6
:1000D800C205C417FF30C305FF30C4050030C5058D
:1000E8004B084C0203189E2801300310C30DC40DA1
:1000F800C50DFF3E031D79280130CB024B084C0685
:10010800031999280130CA024A080739031999289E
:10011800782801300310C20CC10CC00CFF3E031D2F
:100128008E280130C6004608CC074C084B06031938
:10013800C7288D284C084B020318C7280130031024
:10014800C00DC10DC20DFF3E031DA3280130CC0216
:100158004B084C060319C3280130CA024A0807395C
:100168000319C328A22801300310C50CC40CC30C02
:10017800FF3E031DB8280130C6004608CB074C08CF
:100188004B06031DB728CA1FD928FF30C006FF3009
:10019800C106FF30C2060130C00700300318013025
:1001A800C107003003180130C2074A1FEB28FF308F
:1001B800C306FF30C406FF30C5060130C307003050
:1001C80003180130C407003003180130C507CA01FD
:1001D8004008C307410803110318410A031DC40757
:1001E800420803110318420A031DC507C51F0E293B
:1001F800FF30C306FF30C406FF30C5060130C30711
:10020800003003180130C407003003180130C50757
:10021800CA01CA0A4308F0004408F1004508F20080
:100228004C08C6004608F3004A08C7004708F4000F
:100238000A128A111A24700883120313C000710865
:10024800C1007208C2000800D301D4018B130C1F2F
:10025800E9290C131E08DB01DB07831603131E08AC
:1002680083120313DA01DA07CD30C0004C30C10025
:100278003D30C2000030B0008030B1004430B200E0
:100288000030A000A030A1004030A2005B08F901B6
:10029800F9075A08F801F8070A128A117D250A1287
:1002A8008A11780883120313A3007908A4007A0836
:1002B800A5000A128A1101220A128A118312031355
:1002C8002008B3002108B4002208B5000A128A11D8
:1002D800D4220A128A11831203133008C30031088A
:1002E800C4003208C5000A128A111F200A128A1196
:1002F800831203134008D5004108D6004208D700EE
:100308005508A3005608A4005708A5000030A0000F
:100318002030A1004130A2000A128A1101220A12DB
:100328008A11831203132008B0002108B1002208A3
:10033800B2000A128A118C230A128A11831203133B
:100348003108D901D9073008D801D8070A30F00098
:100358000030F1005908F301F3075808F201F207D9
:100368000A128A1182240A128A117108831203134D
:10037800DF01DF077008DE01DE070A30F000003019
:10038800F1005908F301F3075808F201F2070A12BD
:100398008A11F5240A128A11710883120313DD01E8
:1003A800DD077008DC01DC0786010F305C05CD0035
:1003B8005E080F39CE0003300310CE0DFF3E031D3B
:1003C800E02903104E0D4D0486008B170A30F0000B
:1003D8000030F1000A128A1129250A128A118312A3
:1003E80003131F155208FF0051088A0050088400A3
:1003F8004F0E8300FE0E7E0E0900831203132008A1
:10040800A6002108A7002208A8000310270D280D20
:10041800A9002908AA00AA08031D192A0030A0006B
:100428000030A1000030A20008002308A60024081C
:10043800A7002508A8000310270D280DA9002908E2
:10044800AF00AF08031D2F2A0030A0000030A10024
:100458000030A20008002F087B3EA6002608AA0745
:100468002008A6002108A7002208A80010300310C1
:10047800A80CA70CA60CFF3E031D3B2A2608A900C2
:100488002908AF002308A6002408A7002508A8000B
:1004980010300310A80CA70CA60CFF3E031D4D2A14
:1004A8002608A9002908AF068030A6002608AF054F
:1004B800A117A417FF30A305FF30A4050030A50538
:1004C8000030AB000030AC000030AD000730A600B3
:1004D8002608AE00201C7E2A2308AB072408031137
:1004E8000318240A031DAC07250803110318250A5D
:1004F800031DAD0701300310A20CA10CA00CFF3E98
:10050800031D7F2A01300310A30DA40DA50DFF3E86
:10051800031D872A0130AE02031D6E2A0930A6008A
:100528002608AE00201CA62A2308AB0724080311BE
:100538000318240A031DAC07250803110318250A0C
:10054800031DAD0701300310A20CA10CA00CFF3E47
:10055800031DA72A01300310AD0CAC0CAB0CFF3EF9
:10056800031DAF2A0130AE02031D962A2B08F000A6
:100578002C08F1002D08F2002A08A6002608F3002E
:100588002F08A7002708F4000A128A111A247008F5
:1005980083120313A0007108A1007208A2000800CA
:1005A800831203133308B6003408B7003508B800BF
:1005B8000310370D380DB9003908BE00BE08031DF9
:1005C800EC2A0030B0000030B1000030B200080062
:1005D8003008B6003108B7003208B8000310370DEC
:1005E800380DB9003908BF00BF08031D022B0030C1
:1005F800B0000030B1000030B20008000030BB008D
:100608000030BC000030BD0089303F07B600360816
:10061800BE023308B6003408B7003508B8001030F9
:100628000310B80CB70CB60CFF3E031D142B36088C
:10063800B9003908BF003008B6003108B7003208E1
:10064800B80010300310B80CB70CB60CFF3E031DF1
:10065800262B3608B9003908BF068030B6003608A0
:10066800BF05B417FF30B305FF30B4050030B5053A
:10067800B117FF30B005FF30B1050030B2051830B2
:10068800B6003608BA0001300310BB0DBC0DBD0D15
:10069800FF3E031D482B32083502031D592B310834
:1006A8003402031D592B30083302031C662B300813
:1006B800B3023108031C310FB4023208031C320A9A
:1006C800B5023B1401300310B30DB40DB50DFF3E58
:1006D800031D672B0130BA02031D472B3B08F000AE
:1006E8003C08F1003D08F2003E08B6003608F30069
:1006F8003F08B7003708F4000A128A111A24700854
:1007080083120313B0007108B1007208B200080028
:10071800831203133008B4003108B5003208B6005C
:100728000310350D360DB7003708BD00BD08031D91
:10073800A62B0030B3000030B2000030B10000300A
:10074800B00008003008B4003108B5003208B6001F
:1007580017300310B60CB50CB40CFF3E031DAD2BBF
:100768003408B7003708B800B117FF30B005FF30BC
:10077800B1050030B2053008B9003108BA003208B6
:10078800BB00BC018E30BD02BD1FE82B3D08803A7E
:100798008F3E0318D82B0030B3000030B200003071
:1007A800B1000030B000080001300310BC0CBB0CD5
:1007B800BA0CB90CFF3E031DD92B0130B400340824
:1007C800BD070319032CD82B18303D02031C002C3D
:1007D8000030B3000030B2000030B1000030B0008B
:1007E80008000130B4000310B90DBA0DBB0DBC0DE3
:1007F800B40BF72B0130BD02BD08031DF52B3808DB
:100808000319112CB909BA09BB09BC09B90A03199A
:10081800BA0A0319BB0A0319BC0A3C08B3003B080F
:10082800B2003A08B1003908B0000800730803198B
:10083800222C720871047004031D352C0030F0005E
:100848000030F1000030F20008000130F5007508B2
:10085800F30701300310F20CF10CF00CFF3E031DFE
:100868002E2CFE3072050319502C292C0130F5006E
:100878007508F3070130F007003003180130F1075D
:10088800003003180130F20701300310F20CF10CAC
:10089800F00CFF3E031D492CFF30720503195F2C35
:1008A8003A2C0130F30201300310F00DF10DF20D76
:1008B800FF3E031D582CF11F552C7318692CFF306F
:1008C800F0057F30F105FF30F2050310F30C7308D3
:1008D800F500F601F70110300310F50DF60DF70DD0
:1008E800FF3E031D702C7508F0047608F1047708A4
:1008F800F204740803190800F2170800F501F6015C
:10090800710870040319B92CF701F70AF11B982C28
:1009180001300310F00DF10DFF3E031D8D2C013049
:10092800F4007408F7078A2C01300310F50DF60D52
:10093800FF3E031D992C71087302031DA52C700836
:100948007202031CAE2C7008F2027108031CF30338
:10095800F302751401300310F10CF00CFF3E031D77
:10096800AF2C0130F702031D982C7608F101F1072E
:100978007508F001F0070800831603132108A30186
:10098800A3072008A201A2072308220403190800CC
:10099800A401A5012508803AFF0081307F02031DCC
:1009A800D72C003024020318EC2C013083160313D3
:1009B800A4070318A50A0030A5072508803AFF00F8
:1009C80081307F02031DEA2C00302402031CD92C3D
:1009D800FF3083160313A2070318A30AFF30A307E7
:1009E800C82C710870040319222DF501F50AF11BB2
:1009F800092D01300310F00DF10DFF3E031DFE2CF3
:100A08000130F4007408F507FB2C71087302031D0C
:100A18000F2D70087202031C172D7008F20271085E
:100A2800031CF303F30201300310F10CF00CFF3E3A
:100A3800031D182D0130F502031D092D7308F1015E
:100A4800F1077208F001F00708007108F301F307D5
:100A58007008F201F2077308720403190800F40120
:100A6800F5017508803AFF0081307F02031D3E2D95
:100A7800003074020318512D0130F4070318F50AE9
:100A88000030F5077508803AFF0081307F02031DAA
:100A98004F2D00307402031C402DFF30F20703185D
:100AA800F30AFF30F3072F2D83160313A601A701BE
:100AB8008601FF3085008312031386018030831678
:100AC80003139F004130831203139F000C138316F6
:100AD80003130C170B178B170A30A0000030A10066
:100AE8000A128A11C0240A128A11831203131F15CD
:100AF8007C2D7808F0007908F100F2018E30FB00B7
:100B08007B08F300F4010A128A111A247008F8000D
:0A0B18007108F9007208FA000800E5
:02400E0071FF40
:00000001FF
