:060000000A128A11122809
:10000800FE00030EF0000408F1000A08F200831253
:1000180003137F08F3000A128A11E5290A128A11CC
:100028001528F8010A128A1143220A128A11AB0014
:100038000A128A1144220A128A11AC000A128A1181
:1000480045220A128A11AD000A128A1146220A12A2
:100058008A11AE000A128A114722F90083010A1296
:100068008A113628C43083160313810001308600B4
:100078008701FF30880001170B168B100B118B16A8
:100088008B170A128A115B210A128A118312031331
:100098002D08A7002708A4002E080A128A11FC219F
:1000A8000A128A110A128A1138220A128A11B328EE
:1000B80083120313081E892808080F39A700A8010E
:1000C8002708A9002808AA007B28AE01AD01013045
:1000D800AB000030AC00B3280230A7002708AE0000
:1000E8000430A7002708AD00AB01AC01B3282A08EB
:1000F800003A03198028B32829080C3A03196928FB
:10010800023A03197028B328B32801302B062C04AF
:10011800031D9E282D08A7002708A4002E080A12F0
:100128008A11FC210A128A110A128A112A210A123A
:100138008A11B328831203132C082B04031DB32838
:100148002D08A7002708A4002E080A128A11FC21EE
:100158000A128A110A128A11F7200A128A11781CC7
:100168005C28831203132D08A7002708A4002E0873
:100178000A128A11FC210A128A11B32875088312FF
:100188000313A101A1077408A001A00721082004F6
:1001980003190800A201A3012308803AFF00813057
:1001A8007F02031DD928003022020318EE280130EF
:1001B80083120313A2070318A30A0030A307230816
:1001C800803AFF0081307F02031DEC2800302202B4
:1001D800031CDB28FF3083120313A0070318A10AAE
:1001E800FF30A107CA2883120313AE08031D0A298A
:1001F800AD08031D0A290230A5002508AE00043009
:10020800A5002508AD00081A16290729AD08031D01
:1002180014290930A5002508AD000130AE021629C1
:100228000130AD027A30F4000030F5000A128A116C
:10023800C7210A128A11831203132D08A500250865
:10024800A4002E080A128A11FC2108008312031345
:100258002E08023A031D39292D08043A031D3929AD
:10026800AE01AD01081A472936292D08093A031DA0
:100278004329AD010130A5002508AE074729013003
:10028800A5002508AD077A30F4000030F5000A1201
:100298008A11C7210A128A11831203132D08A50097
:1002A8002508A4002E080A128A11FC210800013032
:1002B800F4000030F5000A128A11C2200A128A11CD
:1002C80038300A128A1112220A128A1108300A12C8
:1002D8008A1112220A128A1101300A128A11122274
:1002E8000A128A1106300A128A1112220A128A1177
:1002F8000C300A128A111222080083120313A60076
:10030800A401A5012408260784000A128A11A7213E
:100318000A128A11003803190800240826078400E5
:100328000A128A11A7210A128A110A128A11252291
:100338000A128A11013083120313A4070318A50AAD
:100348000030A507862901308A000408840A82073C
:10035800003443346F3475346E3474342034443488
:100368006F3477346E34003443346F3475346E34FC
:100378007434203455347034003443346F34753455
:100388006E347434003483120313A001A101831264
:1003980003132108803AF6007508803A7602031D97
:1003A800D7297408200203180800F81CCB2901304B
:1003B80083120313A0070318A10A0030A107F8103D
:1003C800CB298B138B1CEC298B100130F806F029F4
:1003D8000B1DF0290B11F8148B177308FF00720816
:1003E8008A0071088400700E8300FE0E7E0E0900DC
:1003F800F7009D300A128A1112220A128A11770810
:10040800303E0A128A1125220A128A118312031316
:100418002408303E0A128A1125220800F6007608C0
:100428008312031387008610061186150130F40025
:100438000030F5000A128A11C220831203138611B4
:100448000800F60076088312031387008614061145
:1004580086150130F4000030F5000A128A11C22016
:100468008312031386110800C7300A128A11122258
:100478000A128A1115300A128A11812108000234E1
:08048800003404340234203476
:02400E0071FF40
:00000001FF
