:060000000A128A11122809
:10000800FE00030EF1000408F2000A08F300831250
:1000180003137F08F4000A128A11EE2A0A128A11C1
:100028001528F801F601F7018313443084005E3087
:100038000A128A113D250A128A110A128A114525C7
:10004800DE0083010A128A112928FF308316031360
:100058008600F83087008801C430810001170B162C
:100068008B108B170A128A11A0240A128A11831284
:100078000313B801B901BA01BB0191300A128A1100
:1000880017250A128A11781C4728781030308312F5
:1000980003135E02031C74283A305E0203187428A6
:1000A8005E080A128A112A250A128A11013083125F
:1000B8000313B8070318B90A0030B9075E08B70078
:1000C8003A08443E84003708831380000130BA0799
:1000D8000318BB0A0030BB073A08443E840080017D
:1000E800033038063904031D8328D1300A128A11D7
:1000F80017250A128A1183120313B801B9015E0881
:100108002A3A031D7229A2300A128A1117250A12E7
:100118008A11013083120313A7008030A8000A1245
:100128008A11E9230A128A1183120313D001D1011B
:10013800CE01CF01C001C1014108803AFF008030E3
:100148007F02031DA9280630400203185B29831289
:1001580003134008443E840083130008D03EBC00CB
:10016800FF3003180030BD004108803AFF0080309E
:100178007F02031DC12803304002031CE028F92830
:10018800643083120313C9280A30A0000030A1008C
:100198003D08A301A3073C08A201A2070A128A117D
:1001A800CD240A128A11831203132108BD01BD0749
:1001B8002008BC01BC07F228831203134108003A47
:1001C8000319E728F2284008003A0319C428013A1D
:1001D8000319C828033A0319F228F2283C08D00763
:1001E8000318D10A3D08D10748298312031341088F
:1001F800803AFF0080307F02031D0429033040024B
:10020800031C4829831203134108803AFF008030F9
:100218007F02031D112906304002031C302948299A
:1002280064308312031319290A30A0000030A1009A
:100238003D08A301A3073C08A201A2070A128A11DC
:10024800CD240A128A11831203132108BD01BD07A8
:100258002008BC01BC074229831203134108003A55
:100268000319372942294008033A03191429073A80
:1002780003191829013A0319422942293C08CE07D3
:100288000318CF0A3D08CF07013083120313C007B4
:100298000318C10A0030C1074108803AFF008030C6
:1002A8007F02031D592906304002031CAB28E230A7
:1002B8000A128A1117250A128A11831203134E088B
:1002C8005007D2004F0803184F0A5107D3005208AD
:1002D800AE005308AF00B001B101752A5E08233A99
:1002E800031D4728A2300A128A1117250A128A11FB
:1002F800013083120313A7008030A8000A128A1164
:10030800E9230A128A1183120313D001D101CE0105
:10031800CF01C201C3014308803AFF0080307F0249
:10032800031D98290630420203184A2A8312031330
:100338004208443E840083130008D03EBE00FF30CC
:1003480003180030BF004308803AFF0080307F0266
:10035800031DB02903304202031CCF29E829643069
:1003680083120313B8290A30A0000030A1003F0807
:10037800A301A3073E08A201A2070A128A11CD24ED
:100388000A128A11831203132108BF01BF0720082C
:10039800BE01BE07E129831203134308003A03197B
:1003A800D629E1294208003A0319B329013A031969
:1003B800B729033A0319E129E1293E08D0070318B0
:1003C800D10A3F08D107372A831203134308803A1A
:1003D800FF0080307F02031DF32903304202031C13
:1003E800372A831203134308803AFF0080307F02C4
:1003F800031D002A06304202031C1F2A372A6430D4
:1004080083120313082A0A30A0000030A1003F0815
:10041800A301A3073E08A201A2070A128A11CD244C
:100428000A128A11831203132108BF01BF0720088B
:10043800BE01BE07312A831203134308003A031989
:10044800262A312A4208033A0319032A073A0319CC
:10045800072A013A0319312A312A3E08CE07031820
:10046800CF0A3F08CF07013083120313C2070318CE
:10047800C30A0030C3074308803AFF0080307F0278
:10048800031D482A06304202031C9A29E2300A1248
:100498008A1117250A128A11831203135008A00023
:1004A8005108A100A201A3014E08A4004F08A5000D
:1004B800A601A7010A128A112A240A128A11831294
:1004C80003132308CD002208CC002108CB00200804
:1004D800CA004D08B1004C08B0004B08AF004A08EC
:1004E800AE005430B7003708B2000A128A1146230A
:1004F8000A128A11543083120313A7000030A8008F
:100508000A128A11E9230A128A1183120313BA0103
:10051800BB014728003083120313AC000030AB0046
:100528000030AA000030A900230822042104200476
:100538000319E52AAD01AD0AA31BB02A0130A800B2
:100548000310A00DA10DA20DA30DA80BA42A013024
:10055800A8002808AD07A02A0130A8000310A90D9B
:10056800AA0DAB0DAC0DA80BB22A23082702031D58
:10057800C72A22082602031DC72A21082502031DAF
:10058800C72A20082402031CD82A2008A40221080C
:10059800031C210FA5022208031C220FA602230810
:1005A800031C230FA702291401300310A30CA20C6B
:1005B800A10CA00CFF3E031DD92A0130AD02031D7A
:1005C800B02A2C08A3002B08A2002A08A100290899
:1005D800A00008008B138B1C3A2B8B10781406088C
:1005E800F039F0007008F500142B3130102B323040
:1005F800102B3330102B3430102B3530102B363075
:10060800102B3730102B3830102B3930102B2A3064
:10061800102B3030102B2330F0007008DE003A2BFE
:100628007508003A0319F92A103A0319FB2A303AD7
:100638000319FD2A603A0319FF2A103A0319012BFE
:10064800303A0319032BE03A0319052B103A031922
:10065800072B303A0319092B603A03190B2B103A70
:1006680003190D2B303A03190F2B3A2B8B177408EB
:10067800FF0073088A0072088400710E8300FE0E62
:100688007E0E0900053083120313B5000030B60052
:100698003208063E840083138001B61B0800003030
:1006A800A3000030A2000030A1000A30A0003108E9
:1006B800A7003008A6002F08A5002E08A4000A12DB
:1006C8008A119B230A128A11831203132008303ED1
:1006D800B30035083207B4003408840033088313A4
:1006E80080000030A3000030A2000030A1000A30D2
:1006F800A0003108A7003008A6002F08A5002E0882
:10070800A4000A128A118E220A128A118312031374
:100718002308B1002208B0002108AF002008AE006D
:10072800FF30B5070318B60AFF30B607512B8312FE
:10073800031323082204210420040319E02BA90130
:10074800A90AA31BB52B0130A8000310A00DA10D09
:10075800A20DA30DA80BA92B0130A8002808A907F2
:10076800A52B23082702031DC32B22082602031DDD
:10077800C32B21082502031DC32B20082402031CB8
:10078800D32B2008A4022108031C210FA50222084C
:10079800031C220FA6022308031C230FA702013003
:1007A8000310A30CA20CA10CA00CFF3E031DD42B1C
:1007B8000130A902031DB52B2708A3002608A200B3
:1007C8002508A1002408A000080083120313AC0127
:1007D800AD012C082707AA002808A9000318A90AB0
:1007E800AC1BA903831203132908AB002B08FF00D5
:1007F8002A0884000A128A1100250A128A11003870
:10080800031908002C082707AA002808A9000318BC
:10081800A90AAC1BA903831203132908AB002B08F0
:10082800FF002A0884000A128A1100250A128A1178
:100838000A128A112A250A128A1101308312031317
:10084800AC070318AD0A0030AD07ED2B003083125A
:100858000313AC000030AB000030AA000030A90040
:10086800201C4A2C2408A907250803110318013E57
:10087800031DAA07260803110318013E031DAB0731
:10088800270803110318013E031DAC070130A80017
:100898000310A40DA50DA60DA70DA80B4C2C013017
:1008A8000310A30CA20CA10CA00CFF3E031D542C9A
:1008B8002308220421042004031D342C2C08A3003F
:1008C8002B08A2002A08A1002908A000080083120A
:1008D80003132108A301A3072008A201A2072308E4
:1008E800220403190800A401A5012508803AFF0085
:1008F80081307F02031D822C003024020318972CBC
:10090800013083120313A4070318A50A0030A507B2
:100918002508803AFF0081307F02031D952C0030A6
:100928002402031C842CFF3083120313A20703182C
:10093800A30AFF30A307732C0F3083120313A00000
:100948000030A1000A128A116B240A128A11383069
:100958000A128A1117250A128A110C300A128A11F2
:1009680017250A128A1106300A128A1117250A1247
:100978008A1101300A128A1117250A128A110230C7
:1009880083120313A0000030A1000A128A116B24FD
:10099800080083120313A401A501201CD92C2208E6
:1009A800A4070318A50A2308A50701300310A20D00
:1009B800A30DFF3E031DDA2C01300310A10CA00C7F
:1009C800FF3E031DE12C21082004031DD12C25081E
:0C09D800A101A1072408A001A00708004D
:100A0000FF1B0A2D83137F1883170008840A03191C
:100A1000FF0A080005308A000408840A82070034AF
:100A20002D342D342D342D342D342D3400348312B7
:100A30000313A60026088800071087100715013049
:100A4000A0000030A1000A128A116B248312031344
:100A50000711080083120313A60026088800071454
:100A6000871007150130A0000030A1000A128A117A
:100A70006B24831203130711080064008001840AA9
:0C0A800004060319003404063E2D203447
:02400E0071FF40
:00000001FF
