:060000000A128A11FC2F18
:100E9A00F6007608831203138600071487100715D5
:100EAA000130F0000030F1000A128A1199278312EA
:100EBA00031307110800F60076088312031386004D
:100ECA000710871007150130F0000030F1000A12F0
:100EDA008A11992783120313071108000130F000C1
:100EEA000030F1000A128A1199270A128A11383041
:100EFA000A128A1160270A128A1108300A128A1104
:100F0A0060270A128A1101300A128A1160270A120E
:100F1A008A1106300A128A1160270A128A110E30C3
:100F2A000A128A11602708007108F301F307700892
:100F3A00F201F2077308720403190800F401F501BB
:100F4A007508803AFF0081307F02031DAE2F003002
:100F5A0074020318C12F0130F4070318F50A003090
:100F6A00F5077508803AFF0081307F02031DBF2F05
:100F7A0000307402031CB02FFF30F2070318F30A83
:100F8A00FF30F3079F2F83160313860187010A1286
:100F9A008A1173270A128A11C6300A128A11602727
:100FAA000A128A1148300A128A114D270A128A1126
:100FBA0045300A128A114D270A128A114C300A1238
:100FCA008A114D270A128A114C300A128A114D27AA
:100FDA000A128A1130300A128A114D270A128A110E
:100FEA0021300A128A114D270A128A11FB2F830116
:060FFA000A128A11C82F43
:02400E0071FF40
:00000001FF
