:060000000A128A11122809
:10000800FE00030EF0000408F1000A08F200831253
:1000180003137F08F3000A128A113F280A128A1173
:10002800152883010A128A11192819308316031317
:1000380099001812831203139817181383160313C1
:10004800181583120313181683160313071387173B
:100058008601831203138601831203138C1E302832
:100068001A08F5007508F60076080A128A114C205D
:100078000A128A1130288B138B177308FF00720835
:100088008A0071088400700E8300FE0E7E0E09003F
:0C009800F40074088312031386000800B3
:02400E0071FF40
:00000001FF
