:060000000A128A11FC2F18
:100E4C000A128A11342783160313111408000A128C
:100E5C008A11342783160313111508008316031304
:100E6C0011081F3903191419342F0800F0000A1245
:100E7C008A11342770088312031393000800831619
:100E8C000313871507162830831203139400831657
:100E9C00031391019401093093000800F1000A1228
:100EAC008A1134270A128A118316031391150A1218
:100EBC008A1134270A128A11831203131308F000C3
:100ECC007008F2000A128A1134270A128A11F108EA
:100EDC00031D742F831603139116772F8316031398
:100EEC0091121116720808007108F301F3077008CB
:100EFC00F201F2077308720403190800F401F501FA
:100F0C007508803AFF0081307F02031D8F2F00305F
:100F1C0074020318A22F0130F4070318F50A0030ED
:100F2C00F5077508803AFF0081307F02031DA02F62
:100F3C0000307402031C912FFF30F2070318F30AE0
:100F4C00FF30F307802F83160313860183120313DC
:100F5C008601FF308316031388000A128A11452775
:100F6C000A128A110A128A1126270A128A111030C3
:100F7C000A128A113C270A128A11831203130808D9
:100F8C000A128A113C270A128A110A128A112D2779
:100F9C000A128A110130F0000030F1000A128A1195
:100FAC007A270A128A110A128A1126270A128A1122
:100FBC0011300A128A113C270A128A1100300A12C7
:100FCC008A1154270A128A118312031386000A12FB
:100FDC008A112D270A128A110130F0000030F1001D
:100FEC000A128A117A270A128A11B82F83010A125F
:040FFC008A11A92F7E
:02400E0071FF40
:00000001FF
