:060000000A128A11122809
:10000800FE00030EF0000408F1000A08F200831253
:1000180003137F08F3000A128A1134280A128A117E
:100028001528F401F501F60183010A128A111C282A
:100038000630831603139F008501831203130510EE
:1000480030309000831603130C14831203130C1022
:100058000B178B170B308F00DC308E0010143328F1
:100068008B130C1C3E280C100B308F00DC308E00DC
:10007800013085068B177308FF0072088A00710823
:0C0088008400700E8300FE0E7E0E090046
:02400E0071FF40
:00000001FF
