:060000000A128A11122809
:10000800FE00030EF0000408F1000A08F200831253
:1000180003137F08F3000A128A11162B0A128A1199
:100028001528F90183010A128A111A28C430831687
:10003800031381008501013086008701FF308800A5
:10004800890101170B168B100B118B168B170630B5
:100058009F00803083120313A9000030AA000A12FF
:100068008A11B2220A128A1101300A128A112C232B
:100078000A128A110A128A1183220A128A11831219
:100088000313081AC629432808080F39A700A8012E
:100098002708AB002808AC00B1290A128A1163238B
:1000A8000A128A11053083120313AD000030AE0026
:1000B8002E08803AFF0080307F02031D652801303A
:1000C8002D02031CC6299D300A128A112C230A12FC
:1000D8008A11831203132D08303E0A128A113F2316
:1000E8000A128A119E300A128A112C230A128A11C6
:1000F80073300A128A113F230A128A117A30F400E7
:100108000030F5000A128A11FE220A128A11791C9F
:10011800A0280A128A1152230A128A11F430F40014
:100128000030F5000A128A11FE220A128A1179108B
:1001380083120313AD01AE01FF3083120313AD0721
:100148000318AE0AFF30AE075C280A128A1163232F
:100158000A128A11033083120313AF000030B00073
:100168003008803AFF0080307F02031DBD2801302F
:100178002F02031CC6299D300A128A112C230A1249
:100188008A11831203132F08303E0A128A113F2363
:100198000A128A119E300A128A112C230A128A1115
:1001A80073300A128A113F230A128A117A30F40036
:1001B8000030F5000A128A11FE220A128A11791CEF
:1001C800F8280A128A1152230A128A11F430F4000C
:1001D8000030F5000A128A11FE220A128A117910DB
:1001E80083120313AF01B001FF3083120313AF076B
:1001F8000318B00AFF30B007B4280A128A11632323
:100208000A128A11053083120313B1000030B200BC
:100218003208803AFF0080307F02031D1529013023
:100228003102031CC6299D300A128A112C230A1296
:100238008A11831203133108303E0A128A113F23B0
:100248000A128A119E300A128A112C230A128A1164
:1002580073300A128A113F230A128A117A30F40085
:100268000030F5000A128A11FE220A128A11791C3E
:1002780050290A128A1152230A128A11F430F40002
:100288000030F5000A128A11FE220A128A1179102A
:1002980083120313B101B201FF3083120313B107B4
:1002A8000318B20AFF30B2070C290A128A11632315
:1002B8000A128A11033083120313B3000030B4000A
:1002C8003408803AFF0080307F02031D6D29013019
:1002D8003302031CC6299D300A128A112C230A12E4
:1002E8008A11831203133308303E0A128A113F23FE
:1002F8000A128A119E300A128A112C230A128A11B4
:1003080073300A128A113F230A128A117A30F400D4
:100318000030F5000A128A11FE220A128A11791C8D
:10032800A8290A128A1152230A128A11F430F400F9
:100338000030F5000A128A11FE220A128A11791079
:1003480083120313B301B401FF3083120313B307FD
:100358000318B40AFF30B4076429831203132C0866
:10036800003A0319B829C6292B08003A031951285D
:10037800013A0319A928033A03190129063A03196E
:0E0388005929C62983120313081E3828482855
:1004000002308A000408840A8207003445346D34BF
:1004100065347234673465346E346334793420342F
:10042000533474346F3470342E342E342E340034FC
:10043000443469347334703465346E3473346934DD
:100440006E3467342E342E342E3400345B34323420
:100450005D34203453347034723469347434653408
:1004600000345B3433345D34203452346F347934A7
:1004700061346C3400345B3434345D3420345034B3
:10048000653470347334693400345B3431345D3432
:10049000203443346F346B34653400347508831270
:1004A0000313A101A1077408A001A00721082004DB
:1004B00003190800A201A3012308803AFF0081303C
:1004C0007F02031D652A0030220203187A2A0130B8
:1004D00083120313A2070318A30A0030A3072308FB
:1004E000803AFF0081307F02031D782A003022020B
:1004F000031C672AFF3083120313A0070318A10A05
:10050000FF30A107562A80300A128A112C230A12C2
:100510008A1140300A128A11D8220A128A11C03078
:100520000A128A112C230A128A1121300A128A1106
:10053000D8220A128A1194300A128A112C230A1224
:100540008A112C300A128A11D8220A128A11D43048
:100550000A128A112C230A128A1136300A128A11C1
:10056000D82208000130F4000030F5000A128A1188
:100570004E220A128A1138300A128A112C230A12CA
:100580008A1108300A128A112C230A128A110130AA
:100590000A128A112C230A128A1106300A128A11B1
:1005A0002C230A128A110E300A128A112C230800F9
:1005B00083120313A600A401A501240826078400C2
:1005C0000A128A1100220A128A110038031908003F
:1005D0002408260784000A128A1100220A128A11AE
:1005E0000A128A113F230A128A110130831203135F
:1005F000A4070318A50A0030A507DD2AF701F801B2
:100600007808803AF6007508803A7602031D0A2BB6
:100610007408770203180800F91C002B0130F70753
:100620000318F80A0030F807F910002B8B138B1C05
:100630001C2B8B107914202B0B1D202B0B11F91464
:100640008B177308FF0072088A0071088400700E0F
:100650008300FE0E7E0E0900F60076088312031357
:1006600087008610061186150130F4000030F50071
:100670000A128A114E228312031386110800F60013
:10068000760883120313870086140611861501303D
:10069000F4000030F5000A128A114E22831203136F
:1006A0008611080001300A128A112C230A128A11BD
:1006B000C2300A128A112C230A128A1101300A123E
:1006C0008A11D822080001300A128A112C230A123A
:1006D0008A11C4300A128A112C230A128A1113308B
:0806E0000A128A11D822080059
:02400E0071FF40
:00000001FF
