:060000000A128A11122809
:10000800FE00030EF1000408F2000A08F300831250
:1000180003137F08F4000A128A112B280A128A1186
:100028001528FA01F601F701F801F90183132030C8
:10003800840038300A128A112D210A128A110A12F4
:100048008A113521C30083010A128A1183288B1370
:100058008B1C77288B107A140608F039F00070088A
:10006800F500512831304D2832304D2833304D2895
:1000780034304D2835304D2836304D2837304D280E
:1000880038304D2839304D282A304D2830304D2809
:100098002330F0007008C30077287508003A031968
:1000A8003628103A03193828303A03193A28603AA2
:1000B80003193C28103A03193E28303A03194028FE
:1000C800E03A03194228103A03194428303A031930
:1000D8004628603A03194828103A03194A28303A42
:1000E80003194C2877288B177408FF0073088A00B7
:1000F80072088400710E8300FE0E7E0E090019300E
:100108008316031399001812831203139817831682
:10011800031318131815981607138717FF3086004E
:10012800F83087008801C430810001170B168B1046
:100138008B170A128A11ED200A128A1183120313EF
:10014800BF01C001C101C20191300A128A111A21EE
:100158000A128A117A1CAE287A10831203130C1E15
:10016800B12843089900AE28831203133908BB014C
:10017800BB073808BA01BA073B083A040319080054
:10018800BC01BD013D08803AFF0081307F02031D9C
:10019800CF2800303C020318E428013083120313EF
:1001A800BC070318BD0A0030BD073D08803AFF00B0
:1001B80081307F02031DE22800303C02031CD12855
:1001C800FF3083120313BA070318BB0AFF30BB07BB
:1001D800C0280F3083120313B8000030B9000A1288
:1001E8008A11B8200A128A1138300A128A111A2183
:1001F8000A128A110C300A128A111A210A128A115B
:1002080006300A128A111A210A128A1101300A12BA
:100218008A111A210A128A11023083120313B800B4
:100228000030B9000A128A11B8200800831203139B
:10023800BE003E0888000710871007150130B80077
:100248000030B9000A128A11B8208312031307116B
:10025800080064008001840A0406031900340406B7
:040268002E292034E7
:02400E0071FF40
:00000001FF
