:060000000A128A11122809
:10000800FE00030EF0000408F1000A08F200831253
:1000180003137F08F3000A128A1177280A128A113B
:100028001528F90183010A128A111A288312031369
:10003800A401A301A101A201C43083160313810006
:100048008701880101170B168B100B118B168B1764
:1000580083120313870188015A2883120313240883
:10006800093A031D4128A4012408093A03194B2819
:100078000130A0002008A3074B282308093A031DD4
:100088004728A3014B280130A0002008A4077A3094
:10009800F4000030F5000A128A115F200A128A1152
:1000A800831203132408870023088800791C312849
:1000B800791C5A285428F701F8017808803AF60084
:1000C8007508803A7602031D6B28740877020318B6
:1000D8000800F91C61280130F7070318F80A0030F6
:1000E800F807F91061288B138B1C7E288B100130C0
:1000F800F90682280B1D82280B11F9148B17730837
:10010800FF0072088A0071088400700E8300FE0EDA
:040118007E0E09004E
:02400E0071FF40
:00000001FF
