:100000000A128A11F02F00308A000408840A82073D
:100010000034543465346D34703465347234613472
:1000200074347534723465343A34203400344834CE
:1000300075346D34693464346934743479343A34E1
:10004000203400342E3430342034433400342E3401
:06005000303425340034B9
:100062007808F0007908F100F2018E30FB007B087D
:10007200F300F4010A128A11E4217008F8007108F1
:10008200F9007208FA000800C0300A128A15A8277F
:100092000A128A1101300A128A15BB270A128A1122
:1000A200831203135708303E0A128A1595270A1243
:1000B2008A11831203135508303E0A128A159527B6
:1000C2000A128A111A300A128A15BB270800F10097
:1000D2000A128A1575270A128A11831603139115BB
:1000E2000A128A1575270A128A118312031313083A
:1000F200F0007008F2000A128A1575270A128A1196
:10010200F108031D88288316031391168B28831682
:10011200031391121116720808000F30F00000301C
:10012200F1000A128A11E6200A128A1138300A12E4
:100132008A15A8270A128A110C300A128A15A827D2
:100142000A128A1106300A128A15A8270A128A117F
:1001520001300A128A15A8270A128A110230F00009
:100162000030F1000A128A11E62008007108F3013A
:10017200F3077008F201F20773087204031908000A
:10018200F401F5017508803AFF0081307F02031DFA
:10019200CC28003074020318DF280130F40703185A
:1001A200F50A0030F5077508803AFF0081307F02BA
:1001B200031DDD2800307402031CCE28FF30F20735
:1001C2000318F30AFF30F307BD287108F301F307A0
:1001D2007008F201F2077308720403190800F401AF
:1001E200F5017508803AFF0081307F02031DFB286C
:1001F2000030740203180E290130F4070318F50ABF
:100202000030F5077508803AFF0081307F02031D38
:100212000C2900307402031CFD28FF30F20703187A
:10022200F30AFF30F307EC2871087004031942291E
:10023200F501F50AF11B292901300310F00DF10D2A
:10024200FF3E031D1E290130F4007408F5071B2927
:1002520071087302031D2F2970087202031C3729CB
:100262007008F2027108031CF303F3020130031059
:10027200F10CF00CFF3E031D38290130F502031D7D
:1002820029297308F101F1077208F001F00708004B
:10029200F501F6017108700403198029F701F70AC4
:1002A200F11B5F2901300310F00DF10DFF3E031D1C
:1002B20054290130F4007408F70751290130031062
:1002C200F50DF60DFF3E031D602971087302031D33
:1002D2006C2970087202031C75297008F2027108F9
:1002E200031CF303F302751401300310F10CF00C3C
:1002F200FF3E031D76290130F702031D5F297608B0
:10030200F101F1077508F001F0070800F21FAE29AC
:100312000030F6000030F7008030F8007009F90074
:100322007109FA007209FB00F90A0319FA0A0319A2
:10033200FB0A7908F6077A0803187A0FA129A2297D
:10034200F7077B0803187B0FA729A829F807760867
:10035200F0007708F1007808F200F51FD529003087
:10036200F6000030F7008030F8007309F9007409D4
:10037200FA007509FB00F90A0319FA0A0319FB0AC4
:100382007908F6077A0803187A0FC829C929F707E6
:100392007B0803187B0FCE29CF29F8077608F300D4
:1003A2007708F4007808F5008030F2068030F50610
:1003B20075087202031D080074087102031D08000B
:1003C20073087002080073080319EC29720871049B
:1003D2007004031DFF290030F0000030F1000030EE
:1003E200F20008000130F5007508F3070130031030
:1003F200F20CF10CF00CFF3E031DF829FE307205E1
:1004020003191A2AF3290130F5007508F3070130A0
:10041200F007003003180130F107003003180130F3
:10042200F20701300310F20CF10CF00CFF3E031D39
:10043200132AFF3072050319292A042A0130F30214
:1004420001300310F00DF10DF20DFF3E031D222AC3
:10045200F11F1F2A7318332AFF30F0057F30F10590
:10046200FF30F2050310F30C7308F500F601F701F3
:1004720010300310F50DF60DF70DFF3E031D3A2A5D
:100482007508F0047608F1047708F2047408031979
:100492000800F21708007008F4007108F5007208ED
:1004A200F6000310750D760DF7007708FD00FD08C4
:1004B200031D642A0030F3000030F2000030F10026
:1004C2000030F00008007008F4007108F5007208AE
:1004D200F60017300310F60CF50CF40CFF3E031D6A
:1004E2006B2A7408F7007708F800F117FF30F0055F
:1004F200FF30F1050030F2057008F9007108FA00CA
:100502007208FB00FC018E30FD02FD1FA62A7D0849
:10051200803A8F3E0318962A0030F3000030F20032
:100522000030F1000030F000080001300310FC0C34
:10053200FB0CFA0CF90CFF3E031D972A0130F40064
:100542007408FD070319C12A962A18307D02031C7C
:10055200BE2A0030F3000030F2000030F10000301B
:10056200F00008000130F4000310F90DFA0DFB0D44
:10057200FC0DF40BB52A0130FD02FD08031DB32A60
:1005820078080319CF2AF909FA09FB09FC09F90AC3
:100592000319FA0A0319FB0A0319FC0A7C08F3007F
:1005A2007B08F2007A08F1007908F0000800831253
:1005B20003132308A6002408A7002508A800031097
:1005C200270D280DA9002908AE00AE08031DF02A48
:1005D2000030A0000030A1000030A2000800200876
:1005E200A6002108A7002208A8000310270D280D45
:1005F200A9002908AF00AF08031D062B0030A00098
:100602000030A1000030A20008000030AB00003032
:10061200AC000030AD0089302F07A6002608AE02DC
:100622002308A6002408A7002508A80010300310FC
:10063200A80CA70CA60CFF3E031D182B2608A90028
:100642002908AF002008A6002108A7002208A80058
:1006520010300310A80CA70CA60CFF3E031D2A2B7A
:100662002608A9002908AF068030A6002608AF0593
:10067200A417FF30A305FF30A4050030A505A1177C
:10068200FF30A005FF30A1050030A2051830A600FA
:100692002608AA0001300310AB0DAC0DAD0DFF3ED4
:1006A200031D4C2B22082502031D5D2B2108240269
:1006B200031D5D2B20082302031C6A2B2008A302C2
:1006C2002108031C210FA4022208031C220AA502EE
:1006D2002B1401300310A30DA40DA50DFF3E031D25
:1006E2006B2B0130AA02031D4B2B2B08F0002C08A8
:1006F200F1002D08F2002E08A6002608F3002F08AC
:10070200A7002708F4000A128A11E4217008831254
:100712000313A0007108A1007208A200080083124E
:1007220003133008B6003108B7003208B8000310CE
:10073200370D380DB9003908BA00BA08031DA82BC5
:100742000030B0000030B1000030B20008003308C1
:10075200B6003408B7003508B8000310370D380D5D
:10076200B9003908BF00BF08031DBE2B0030B0001E
:100772000030B1000030B20008003F087B3EB600F6
:100782003608BA073008B6003108B7003208B80098
:1007920010300310B80CB70CB60CFF3E031DCA2B69
:1007A2003608B9003908BF003308B6003408B7006C
:1007B2003508B80010300310B80CB70CB60CFF3E69
:1007C200031DDC2B3608B9003908BF068030B6009D
:1007D2003608BF05B117B417FF30B305FF30B405B3
:1007E2000030B5050030BB000030BC000030BD0059
:1007F2000730B6003608BE00301C0D2C3308BB078C
:10080200340803110318340A031DBC073508031109
:100812000318350A031DBD0701300310B20CB10CD9
:10082200B00CFF3E031D0E2C01300310B30DB40DAE
:10083200B50DFF3E031D162C0130BE02031DFD2B1C
:100842000930B6003608BE00301C352C3308BB0711
:10085200340803110318340A031DBC0735080311B9
:100862000318350A031DBD0701300310B20CB10C89
:10087200B00CFF3E031D362C01300310BD0CBC0C26
:10088200BB0CFF3E031D3E2C0130BE02031D252C76
:100892003B08F0003C08F1003D08F2003A08B600BF
:1008A2003608F3003F08B7003708F4000A128A112D
:1008B200E421700883120313B0007108B1007208BA
:1008C200B2000800780883120313A0007908A1007F
:1008D2007A08A2000310210D220DA3002308A6000E
:1008E2007B08A0007C08A1007D08A2000310210D56
:1008F200220DA3002308A500260803198C2C250825
:1009020026020318932C2603FF3A2507A00019306C
:100912002002031C932C7B08F8007C08F9007D0858
:10092200FA00080025080319080026082502031802
:10093200A22C2503FF3A2607A00019302002031833
:1009420008000630A0002008A400FA1BA417FD1B13
:100952002417F917FF30F805FF30F9050030FA05C2
:10096200FC17FF30FB05FF30FC050030FD052508B4
:1009720026020318E22C01300310FB0DFC0DFD0DC5
:10098200FF3E031DBD2C0130A502250826060319D2
:10099200DD2C0130A402240807390319DD2CBC2CFC
:1009A20001300310FA0CF90CF80CFF3E031DD22C97
:1009B2000130A0002008A6072608250603190B2DE2
:1009C200D12C2608250203180B2D01300310F80D37
:1009D200F90DFA0DFF3E031DE72C0130A602250892
:1009E20026060319072D0130A4022408073903192A
:1009F200072DE62C01300310FD0CFC0CFB0CFF3E16
:100A0200031DFC2C0130A0002008A507260825069E
:100A1200031DFB2CA41F1D2DFF30F806FF30F90625
:100A2200FF30FA060130F807003003180130F907E9
:100A3200003003180130FA07241F2F2DFF30FB0668
:100A4200FF30FC06FF30FD060130FB0700300318C3
:100A52000130FC07003003180130FD07A4017808BB
:100A6200FB07790803110318790A031DFC077A08AA
:100A7200031103187A0A031DFD07FD1F522DFF30D3
:100A8200FB06FF30FC06FF30FD060130FB0700309D
:100A920003180130FC07003003180130FD07A401E0
:100AA200A40A7B08F0007C08F1007D08F200260809
:100AB200A0002008F3002408A1002108F4000A1273
:100AC2008A11E4217008F8007108F9007208FA002E
:100AD2000800831603138601880183120313C801D9
:100AE200C901CA01CB01CC010A128A1586270A1252
:100AF2008A110A128A118E200A128A110A128A1582
:100B020067270A128A1180300A128A157D270A1273
:100B12008A11E5300A128A157D270A128A110A12F1
:100B22008A1560270A128A1181300A128A157D27D6
:100B32000A128A1101300A128A1168200A128A11D5
:100B420083120313C000C1014008C8004108C90054
:100B520000300A128A1168200A128A1183120313C2
:100B6200C0004008CC000130F0000030F1000A1251
:100B72008A11B7200A128A11831203134908C1008D
:100B82004808C0000630FF000310C00DC10DFF0B66
:100B9200C52D4008C8004108C9004C08C0000230F9
:100BA2000310C00CFF3E031DD12D4008C1004108B7
:100BB200CC0048084C04C8004908C9000030B00005
:100BC200FA30B1004230B2000030A0008030A10003
:100BD2004630A2004908F901F9074808F801F80768
:100BE2000A128A1131200A128A1178088312031319
:100BF200A3007908A4007A08A5000A128A11D82253
:100C02000A128A11831203132008B3002108B400C8
:100C12002208B5000A128A1190230A128A1183123D
:100C220003133008C2003108C3003208C40042086E
:100C3200F0004308F1004408F2000030F300C03035
:100C4200F4004030F5000A128A1187210A128A1133
:100C5200031C462E0030F800C030F900C030FA0004
:100C6200831203134208FB004308FC004408FD0002
:100C72000A128A1163240A128A1178088312031352
:100C8200C2007908C3007A084D2E00308312031384
:100C9200C2000030C3000030C4004208F000430824
:100CA200F1004408F2000A128A114C220A128A1137
:100CB200710883120313CE01CE077008CD01CD0750
:100CC2000A30F0000030F1004E08F301F3074D083E
:100CD200F201F2070A128A1149210A128A117108D5
:100CE20083120313D201D2077008D101D1070A304F
:100CF200F0000030F1004E08F301F3074D08F20155
:100D0200F2070A128A1115210A128A117108831236
:100D12000313D001D0077008CF01CF070A128A153A
:100D2200DD270A128A110A128A1567270A128A1106
:100D320080300A128A157D270A128A11E3300A12BC
:100D42008A157D270A128A110A128A156E270A123B
:100D52008A110130F0000030F1000A128A11B72026
:100D62000A128A1183120313CC010A128A15672709
:100D72000A128A1180300A128A157D270A128A11F4
:100D8200E3300A128A157D270A128A110A128A157D
:100D920060270A128A1181300A128A157D270A12E7
:100DA2008A1101300A128A1168200A128A118312EA
:100DB2000313C000C1014008CA004108CB00003043
:100DC2000A128A1168200A128A1183120313C000C0
:100DD2004008CC000A128A156E270A128A110A30BC
:100DE200F0000030F1000A128A11B7200A128A11AB
:100DF200831203134B08C1004A08C0000630FF00EB
:100E02000310C00DC10DFF0B012F4008CA0041089D
:100E1200CB004C08C00002300310C00CFF3E031D83
:100E22000D2F4008C1004108CC004A084C04CA00FA
:100E32004B08CB00B830B0002F30B1004330B200C5
:100E42000030A0008030A1004630A2004B08F9011A
:100E5200F9074A08F801F8070A128A1131200A1222
:100E62008A11780883120313A3007908A4007A0870
:100E7200A5000A128A11D8220A128A1183120313B8
:100E82002008B3002108B4002208B5000A128A1112
:100E920090230A128A11831203133008C500310805
:100EA200C6003208C7004508F0004608F1004708AE
:100EB200F2006630F3003B30F4004230F5000A12D3
:100EC2008A1187210A128A11031C822F6630F800C8
:100ED2003B30F900C230FA00831203134508FB00CD
:100EE2004608FC004708FD000A128A1163240A1210
:100EF2008A11780883120313C5007908C6007A089C
:100F0200892F003083120313C5000030C600003061
:100F1200C7004508F0004608F1004708F2000A122F
:100F22008A114C220A128A11710883120313D40106
:100F3200D4077008D301D3070A30F0000030F10063
:100F42005408F301F3075308F201F2070A128A1157
:100F520049210A128A11710883120313D801D80792
:100F62007008D701D7070A30F0000030F1005408AA
:100F7200F301F3075308F201F2070A128A1115214D
:100F82000A128A11710883120313D601D607700858
:100F9200D501D5070A128A1567270A128A118030ED
:100FA2000A128A157D270A128A11E5300A128A1559
:100FB2007D270A128A110A128A156E270A128A11CD
:100FC2000A30F0000030F1000A128A11B7200A122A
:100FD2008A110A128A1145200A128A117F2DCD0127
:100FE200CE01CF01D001D101D201D301D401D5016B
:0E0FF200D601D701D80183010A128A116A2D97
:101EC0000A128A15752783160313911408000A1243
:101ED0008A15752783160313111408000A128A1530
:101EE00075278316031311150800831603131108B1
:101EF0001F3903191419752F0800F0000A128A15EA
:101F000075277008831203139300080083160313C8
:101F100087150716283083120313940083160313C2
:101F200091019401093093000800F60076088312AD
:101F3000031386000814881008150130F0000030E3
:101F4000F1000A128A11E620831203130811080017
:101F5000F60076088312031386000810881008150F
:101F60000130F0000030F1000A128A11E6208312DD
:101F7000031308110800F900F701F8017708790741
:101F800084000A128A1103200A128A1500380319E4
:101F900008007708790784000A128A1103200A12C0
:101FA0008A150A128A1595270A128A150130F70731
:101FB0000318F80A0030F807BE2F80300A128A157D
:101FC000A8270A128A150F300A128A15BB270A128F
:101FD0008A15831203135108303E0A128A15952779
:101FE0000A128A15831203134F08303E0A128A150B
:101FF00095270A128A151F300A128A15BB27080076
:02400E0071FF40
:00000001FF
