:060000000A128A11122809
:10000800FE00030EF0000408F1000A08F200831253
:1000180003137F08F3000A128A1134280A128A117E
:10002800152883010A128A11192819308316031317
:1000380099001812831203139817181383160313C1
:1000480018158312031318168316031385018601E6
:100058008312031386018C1E2F281A0886002F2866
:100068008B138B177308FF0072088A0071088400CD
:0A007800700E8300FE0E7E0E0900DC
:02400E0071FF40
:00000001FF
